{
  "abi": [
    {
      "inputs": [],
      "name": "congest",
      "outputs": [],
      "stateMutability": "nonpayable",
      "type": "function"
    }
  ],
  "bytecode": {
    "object": "0x6080604052348015600f57600080fd5b5060808061001e6000396000f3fe6080604052348015600f57600080fd5b506004361060285760003560e01c8063312d46c714602d575b600080fd5b60336035565b005b6301c9c2545a1015604557600080fd5b5b604656fea264697066735822122092ea977ad3a41ef98f221488b0152fe81d1f0b5b4b06ea5c7ddebd957fa6060e64736f6c63430008130033",
    "linkReferences": {}
  },
  "methodIdentifiers": {
    "congest()": "312d46c7"
  },
  "id": 20
}