{
  "abi": [
    {
      "inputs": [],
      "name": "congest",
      "outputs": [],
      "stateMutability": "view",
      "type": "function"
    }
  ],
  "bytecode": {
    "object": "0x6080604052348015600f57600080fd5b5060808061001e6000396000f3fe6080604052348015600f57600080fd5b506004361060285760003560e01c8063312d46c714602d575b600080fd5b60336035565b005b6301c9c2545a1015604557600080fd5b5b604656fea2646970667358221220ce7d7a90f58047db1df11d371f1d88605d759c67dade531b3b2ea22ebe9c084764736f6c63430008130033",
    "linkReferences": {}
  },
  "methodIdentifiers": {
    "congest()": "312d46c7"
  },
  "id": 20
}