{
  "abi": [
    {
      "inputs": [],
      "name": "block_reward",
      "outputs": [
        {
          "internalType": "uint256",
          "name": "",
          "type": "uint256"
        }
      ],
      "stateMutability": "view",
      "type": "function"
    },
    {
      "inputs": [
        {
          "internalType": "uint256",
          "name": "",
          "type": "uint256"
        }
      ],
      "name": "block_reward_addresses",
      "outputs": [
        {
          "internalType": "address",
          "name": "",
          "type": "address"
        }
      ],
      "stateMutability": "view",
      "type": "function"
    },
    {
      "inputs": [
        {
          "internalType": "uint256",
          "name": "",
          "type": "uint256"
        }
      ],
      "name": "block_tx_roots",
      "outputs": [
        {
          "internalType": "bytes32",
          "name": "",
          "type": "bytes32"
        }
      ],
      "stateMutability": "view",
      "type": "function"
    },
    {
      "inputs": [
        {
          "components": [
            {
              "internalType": "bytes32",
              "name": "parentHash",
              "type": "bytes32"
            },
            {
              "internalType": "bytes32",
              "name": "uncleHash",
              "type": "bytes32"
            },
            {
              "internalType": "bytes32",
              "name": "coinbase",
              "type": "bytes32"
            },
            {
              "internalType": "bytes32",
              "name": "stateRoot",
              "type": "bytes32"
            },
            {
              "internalType": "bytes32",
              "name": "txRoot",
              "type": "bytes32"
            },
            {
              "internalType": "bytes32",
              "name": "receiptRoot",
              "type": "bytes32"
            },
            {
              "internalType": "bytes32[8]",
              "name": "logsBloom",
              "type": "bytes32[8]"
            },
            {
              "internalType": "bytes32",
              "name": "difficulty",
              "type": "bytes32"
            },
            {
              "internalType": "bytes32",
              "name": "number",
              "type": "bytes32"
            },
            {
              "internalType": "bytes32",
              "name": "gasLimit",
              "type": "bytes32"
            },
            {
              "internalType": "bytes32",
              "name": "gasUsed",
              "type": "bytes32"
            },
            {
              "internalType": "bytes32",
              "name": "timestamp",
              "type": "bytes32"
            },
            {
              "internalType": "bytes32",
              "name": "extraData",
              "type": "bytes32"
            },
            {
              "internalType": "bytes32",
              "name": "mixHash",
              "type": "bytes32"
            },
            {
              "internalType": "bytes32",
              "name": "nonce",
              "type": "bytes32"
            },
            {
              "internalType": "bytes32",
              "name": "baseFeePerGas",
              "type": "bytes32"
            }
          ],
          "internalType": "struct EscrowCongestion.BlockHeader",
          "name": "_block_header",
          "type": "tuple"
        }
      ],
      "name": "calculate_block_hash",
      "outputs": [
        {
          "internalType": "bytes32",
          "name": "",
          "type": "bytes32"
        }
      ],
      "stateMutability": "pure",
      "type": "function"
    },
    {
      "inputs": [
        {
          "internalType": "uint256",
          "name": "_block_number",
          "type": "uint256"
        }
      ],
      "name": "claim_reward",
      "outputs": [],
      "stateMutability": "payable",
      "type": "function"
    },
    {
      "inputs": [],
      "name": "congest",
      "outputs": [],
      "stateMutability": "nonpayable",
      "type": "function"
    },
    {
      "inputs": [
        {
          "internalType": "bytes[]",
          "name": "pre_root",
          "type": "bytes[]"
        },
        {
          "internalType": "bytes[]",
          "name": "post_root",
          "type": "bytes[]"
        }
      ],
      "name": "verifyEncoding",
      "outputs": [
        {
          "internalType": "bytes32",
          "name": "",
          "type": "bytes32"
        }
      ],
      "stateMutability": "pure",
      "type": "function"
    },
    {
      "inputs": [
        {
          "internalType": "bytes32",
          "name": "_block_hash",
          "type": "bytes32"
        },
        {
          "components": [
            {
              "internalType": "bytes32",
              "name": "parentHash",
              "type": "bytes32"
            },
            {
              "internalType": "bytes32",
              "name": "uncleHash",
              "type": "bytes32"
            },
            {
              "internalType": "bytes32",
              "name": "coinbase",
              "type": "bytes32"
            },
            {
              "internalType": "bytes32",
              "name": "stateRoot",
              "type": "bytes32"
            },
            {
              "internalType": "bytes32",
              "name": "txRoot",
              "type": "bytes32"
            },
            {
              "internalType": "bytes32",
              "name": "receiptRoot",
              "type": "bytes32"
            },
            {
              "internalType": "bytes32[8]",
              "name": "logsBloom",
              "type": "bytes32[8]"
            },
            {
              "internalType": "bytes32",
              "name": "difficulty",
              "type": "bytes32"
            },
            {
              "internalType": "bytes32",
              "name": "number",
              "type": "bytes32"
            },
            {
              "internalType": "bytes32",
              "name": "gasLimit",
              "type": "bytes32"
            },
            {
              "internalType": "bytes32",
              "name": "gasUsed",
              "type": "bytes32"
            },
            {
              "internalType": "bytes32",
              "name": "timestamp",
              "type": "bytes32"
            },
            {
              "internalType": "bytes32",
              "name": "extraData",
              "type": "bytes32"
            },
            {
              "internalType": "bytes32",
              "name": "mixHash",
              "type": "bytes32"
            },
            {
              "internalType": "bytes32",
              "name": "nonce",
              "type": "bytes32"
            },
            {
              "internalType": "bytes32",
              "name": "baseFeePerGas",
              "type": "bytes32"
            }
          ],
          "internalType": "struct EscrowCongestion.BlockHeader",
          "name": "_block_header",
          "type": "tuple"
        }
      ],
      "name": "verify_miner_block",
      "outputs": [
        {
          "internalType": "bool",
          "name": "",
          "type": "bool"
        }
      ],
      "stateMutability": "view",
      "type": "function"
    }
  ],
  "bytecode": {
    "object": "0x6080604052670de0b6b3a764000060025534801561001c57600080fd5b506109f08061002c6000396000f3fe60806040526004361061007b5760003560e01c8063861f7e781161004e578063861f7e781461012c5780638c763ff31461017a578063c9d0ba851461019a578063d4152f13146101ad57600080fd5b80630dc4deb51461008057806313c7bc1e146100b5578063312d46c7146100e3578063550bacc114610116575b600080fd5b34801561008c57600080fd5b506100a061009b366004610766565b6101da565b60405190151581526020015b60405180910390f35b3480156100c157600080fd5b506100d56100d03660046107e0565b6101f0565b6040519081526020016100ac565b3480156100ef57600080fd5b5061011443600090815260208190526040902080546001600160a01b03191641179055565b005b34801561012257600080fd5b506100d560025481565b34801561013857600080fd5b5061016261014736600461084c565b6000602081905290815260409020546001600160a01b031681565b6040516001600160a01b0390911681526020016100ac565b34801561018657600080fd5b506100d5610195366004610865565b6103ad565b6101146101a836600461084c565b610571565b3480156101b957600080fd5b506100d56101c836600461084c565b60016020526000908152604090205481565b6000806101e6836103ad565b9093149392505050565b60007f16b6ff83df3ef14f614c70ac29e8a05d102c6bed0e5882c284abf0120b89529c818686828161022457610224610889565b9050602002810190610236919061089f565b6040516020016102479291906108e6565b60408051601f19818403018152919052905060015b868110156102bf578188888381811061027757610277610889565b9050602002810190610289919061089f565b60405160200161029b93929190610926565b604051602081830303815290604052915080806102b790610946565b91505061025c565b506000858560008181106102d5576102d5610889565b90506020028101906102e7919061089f565b6040516020016102f89291906108e6565b60408051601f19818403018152919052905060015b85811015610370578187878381811061032857610328610889565b905060200281019061033a919061089f565b60405160200161034c93929190610926565b6040516020818303038152906040529150808061036890610946565b91505061030d565b5060008284836040516020016103889392919061096d565b60408051808303601f1901815291905280516020909101209998505050505050505050565b600080826000015183602001518460400151856060015186608001518760a0015160405160200161040696959493929190958652602086019490945260408501929092526060840152608083015260a082015260c00190565b604051602081830303815290604052905060008360c0015160006008811061043057610430610889565b6020908102919091015160c0868101518084015160408083015160608085015160808087015160a080890151898b015160e09a8b015189519e8f019d909d52978d0198909852938b0194909452890152870152928501528301526101008201526101200160408051601f198184030181529082905260e08601516101008701516101208801516101408901516101608a01516101808b01516101a08c01516101c08d01516101e08e0151989a506000996105279990602001988952602089019790975260408801959095526060870193909352608086019190915260a085015260c084015260e08301526101008201526101200190565b6040516020818303038152906040529050600083838360405160200161054f93929190610993565b60408051601f1981840301815291905280516020909101209695505050505050565b60008181526020819052604090205481906001600160a01b0316411461059657600080fd5b6000828152602081905260408082205460025491516001600160a01b039091169282156108fc02929190818181858888f193505050501580156105dd573d6000803e3d6000fd5b505050565b634e487b7160e01b600052604160045260246000fd5b604051610200810167ffffffffffffffff8111828210171561061c5761061c6105e2565b60405290565b600082601f83011261063357600080fd5b60405161010080820182811067ffffffffffffffff82111715610658576106586105e2565b6040528301818582111561066b57600080fd5b845b8281101561068557803582526020918201910161066d565b509195945050505050565b60006102e082840312156106a357600080fd5b6106ab6105f8565b9050813581526020820135602082015260408201356040820152606082013560608201526080820135608082015260a082013560a08201526106f08360c08401610622565b60c08201526101c08083013560e08301526101e0808401356101008401526102008401356101208401526102208401356101408401526102408401356101608401526102608401356101808401526102808401356101a08401526102a0840135828401526102c084013581840152505092915050565b600080610300838503121561077a57600080fd5b8235915061078b8460208501610690565b90509250929050565b60008083601f8401126107a657600080fd5b50813567ffffffffffffffff8111156107be57600080fd5b6020830191508360208260051b85010111156107d957600080fd5b9250929050565b600080600080604085870312156107f657600080fd5b843567ffffffffffffffff8082111561080e57600080fd5b61081a88838901610794565b9096509450602087013591508082111561083357600080fd5b5061084087828801610794565b95989497509550505050565b60006020828403121561085e57600080fd5b5035919050565b60006102e0828403121561087857600080fd5b6108828383610690565b9392505050565b634e487b7160e01b600052603260045260246000fd5b6000808335601e198436030181126108b657600080fd5b83018035915067ffffffffffffffff8211156108d157600080fd5b6020019150368190038213156107d957600080fd5b8183823760009101908152919050565b6000815160005b8181101561091757602081850181015186830152016108fd565b50600093019283525090919050565b600061093282866108f6565b838582376000930192835250909392505050565b60006001820161096657634e487b7160e01b600052601160045260246000fd5b5060010190565b600061097982866108f6565b84815261098960208201856108f6565b9695505050505050565b60006109b16109ab6109a584886108f6565b866108f6565b846108f6565b9594505050505056fea2646970667358221220ba7a341b220ed49f79cb448e03a14aefeafd00ed43a152ca8a5e7e562f4e7bff64736f6c63430008130033",
    "linkReferences": {}
  },
  "methodIdentifiers": {
    "block_reward()": "550bacc1",
    "block_reward_addresses(uint256)": "861f7e78",
    "block_tx_roots(uint256)": "d4152f13",
    "calculate_block_hash((bytes32,bytes32,bytes32,bytes32,bytes32,bytes32,bytes32[8],bytes32,bytes32,bytes32,bytes32,bytes32,bytes32,bytes32,bytes32,bytes32))": "8c763ff3",
    "claim_reward(uint256)": "c9d0ba85",
    "congest()": "312d46c7",
    "verifyEncoding(bytes[],bytes[])": "13c7bc1e",
    "verify_miner_block(bytes32,(bytes32,bytes32,bytes32,bytes32,bytes32,bytes32,bytes32[8],bytes32,bytes32,bytes32,bytes32,bytes32,bytes32,bytes32,bytes32,bytes32))": "0dc4deb5"
  },
  "id": 18
}