{
  "abi": [
    {
      "inputs": [
        {
          "internalType": "uint256",
          "name": "_timestamp",
          "type": "uint256"
        }
      ],
      "name": "timelock",
      "outputs": [
        {
          "internalType": "int256",
          "name": "",
          "type": "int256"
        }
      ],
      "stateMutability": "view",
      "type": "function"
    }
  ],
  "bytecode": {
    "object": "0x608060405234801561001057600080fd5b5060b28061001f6000396000f3fe6080604052348015600f57600080fd5b506004361060285760003560e01c8063e995322d14602d575b600080fd5b603c60383660046064565b604e565b60405190815260200160405180910390f35b600081421015605c57600080fd5b506004919050565b600060208284031215607557600080fd5b503591905056fea264697066735822122060b3df0089db934c3d1759b43fe9dfcca3a2ca930c56af180fd5ce85af811a9a64736f6c63430008130033",
    "linkReferences": {}
  },
  "methodIdentifiers": {
    "timelock(uint256)": "e995322d"
  },
  "id": 24
}