{
  "abi": [
    {
      "inputs": [],
      "name": "congest",
      "outputs": [],
      "stateMutability": "view",
      "type": "function"
    },
    {
      "inputs": [],
      "name": "congested_current_block",
      "outputs": [],
      "stateMutability": "nonpayable",
      "type": "function"
    }
  ],
  "bytecode": {
    "object": "0x608060405262e4e1ca60005562e4e1c560015534801561001e57600080fd5b5060ae8061002d6000396000f3fe6080604052348015600f57600080fd5b506004361060325760003560e01c8063312d46c7146037578063f52e9a6b14603f575b600080fd5b603d6047565b005b603d43600155565b6301c96a705a1015605757600080fd5b60005443908110606657600080fd5b6001548114607357600080fd5b5b607456fea264697066735822122066299e3a1dbcf9349d62b22e03d9fa766deeffbba283f3a5a09787a520d8f7ab64736f6c63430008130033",
    "linkReferences": {}
  },
  "methodIdentifiers": {
    "congest()": "312d46c7",
    "congested_current_block()": "f52e9a6b"
  },
  "id": 22
}